{
  "_format": "hh-sol-artifact-1",
  "contractName": "DegenToken",
  "sourceName": "contracts/DegenToken.sol",
  "abi": [
    {
      "inputs": [],
      "stateMutability": "nonpayable",
      "type": "constructor"
    },
    {
      "anonymous": false,
      "inputs": [
        {
          "indexed": true,
          "internalType": "address",
          "name": "owner",
          "type": "address"
        },
        {
          "indexed": true,
          "internalType": "address",
          "name": "spender",
          "type": "address"
        },
        {
          "indexed": false,
          "internalType": "uint256",
          "name": "value",
          "type": "uint256"
        }
      ],
      "name": "Approval",
      "type": "event"
    },
    {
      "anonymous": false,
      "inputs": [
        {
          "indexed": true,
          "internalType": "address",
          "name": "player",
          "type": "address"
        },
        {
          "indexed": false,
          "internalType": "string",
          "name": "item",
          "type": "string"
        },
        {
          "indexed": false,
          "internalType": "uint256",
          "name": "amount",
          "type": "uint256"
        }
      ],
      "name": "Redeemed",
      "type": "event"
    },
    {
      "anonymous": false,
      "inputs": [
        {
          "indexed": true,
          "internalType": "address",
          "name": "from",
          "type": "address"
        },
        {
          "indexed": true,
          "internalType": "address",
          "name": "to",
          "type": "address"
        },
        {
          "indexed": false,
          "internalType": "uint256",
          "name": "value",
          "type": "uint256"
        }
      ],
      "name": "Transfer",
      "type": "event"
    },
    {
      "inputs": [
        {
          "internalType": "string",
          "name": "itemName",
          "type": "string"
        },
        {
          "internalType": "uint256",
          "name": "itemPrice",
          "type": "uint256"
        }
      ],
      "name": "addStoreItem",
      "outputs": [],
      "stateMutability": "nonpayable",
      "type": "function"
    },
    {
      "inputs": [
        {
          "internalType": "address",
          "name": "owner",
          "type": "address"
        },
        {
          "internalType": "address",
          "name": "spender",
          "type": "address"
        }
      ],
      "name": "allowance",
      "outputs": [
        {
          "internalType": "uint256",
          "name": "",
          "type": "uint256"
        }
      ],
      "stateMutability": "view",
      "type": "function"
    },
    {
      "inputs": [
        {
          "internalType": "address",
          "name": "spender",
          "type": "address"
        },
        {
          "internalType": "uint256",
          "name": "amount",
          "type": "uint256"
        }
      ],
      "name": "approve",
      "outputs": [
        {
          "internalType": "bool",
          "name": "",
          "type": "bool"
        }
      ],
      "stateMutability": "nonpayable",
      "type": "function"
    },
    {
      "inputs": [
        {
          "internalType": "address",
          "name": "account",
          "type": "address"
        }
      ],
      "name": "balanceOf",
      "outputs": [
        {
          "internalType": "uint256",
          "name": "",
          "type": "uint256"
        }
      ],
      "stateMutability": "view",
      "type": "function"
    },
    {
      "inputs": [
        {
          "internalType": "uint256",
          "name": "amount",
          "type": "uint256"
        }
      ],
      "name": "burn",
      "outputs": [],
      "stateMutability": "nonpayable",
      "type": "function"
    },
    {
      "inputs": [
        {
          "internalType": "address",
          "name": "account",
          "type": "address"
        }
      ],
      "name": "checkBalance",
      "outputs": [
        {
          "internalType": "uint256",
          "name": "",
          "type": "uint256"
        }
      ],
      "stateMutability": "view",
      "type": "function"
    },
    {
      "inputs": [],
      "name": "decimals",
      "outputs": [
        {
          "internalType": "uint8",
          "name": "",
          "type": "uint8"
        }
      ],
      "stateMutability": "view",
      "type": "function"
    },
    {
      "inputs": [
        {
          "internalType": "address",
          "name": "spender",
          "type": "address"
        },
        {
          "internalType": "uint256",
          "name": "subtractedValue",
          "type": "uint256"
        }
      ],
      "name": "decreaseAllowance",
      "outputs": [
        {
          "internalType": "bool",
          "name": "",
          "type": "bool"
        }
      ],
      "stateMutability": "nonpayable",
      "type": "function"
    },
    {
      "inputs": [
        {
          "internalType": "address",
          "name": "player",
          "type": "address"
        }
      ],
      "name": "getInventory",
      "outputs": [
        {
          "components": [
            {
              "internalType": "string",
              "name": "name",
              "type": "string"
            },
            {
              "internalType": "uint256",
              "name": "quantity",
              "type": "uint256"
            }
          ],
          "internalType": "struct DegenToken.InventoryItem[]",
          "name": "",
          "type": "tuple[]"
        }
      ],
      "stateMutability": "view",
      "type": "function"
    },
    {
      "inputs": [],
      "name": "getStoreItems",
      "outputs": [
        {
          "components": [
            {
              "internalType": "string",
              "name": "name",
              "type": "string"
            },
            {
              "internalType": "uint256",
              "name": "price",
              "type": "uint256"
            }
          ],
          "internalType": "struct DegenToken.StoreItem[]",
          "name": "",
          "type": "tuple[]"
        }
      ],
      "stateMutability": "view",
      "type": "function"
    },
    {
      "inputs": [
        {
          "internalType": "address",
          "name": "spender",
          "type": "address"
        },
        {
          "internalType": "uint256",
          "name": "addedValue",
          "type": "uint256"
        }
      ],
      "name": "increaseAllowance",
      "outputs": [
        {
          "internalType": "bool",
          "name": "",
          "type": "bool"
        }
      ],
      "stateMutability": "nonpayable",
      "type": "function"
    },
    {
      "inputs": [
        {
          "internalType": "address",
          "name": "to",
          "type": "address"
        },
        {
          "internalType": "uint256",
          "name": "amount",
          "type": "uint256"
        }
      ],
      "name": "mint",
      "outputs": [],
      "stateMutability": "nonpayable",
      "type": "function"
    },
    {
      "inputs": [],
      "name": "name",
      "outputs": [
        {
          "internalType": "string",
          "name": "",
          "type": "string"
        }
      ],
      "stateMutability": "view",
      "type": "function"
    },
    {
      "inputs": [],
      "name": "owner",
      "outputs": [
        {
          "internalType": "address",
          "name": "",
          "type": "address"
        }
      ],
      "stateMutability": "view",
      "type": "function"
    },
    {
      "inputs": [
        {
          "internalType": "string",
          "name": "itemName",
          "type": "string"
        }
      ],
      "name": "redeem",
      "outputs": [],
      "stateMutability": "nonpayable",
      "type": "function"
    },
    {
      "inputs": [
        {
          "internalType": "uint256",
          "name": "",
          "type": "uint256"
        }
      ],
      "name": "storeItems",
      "outputs": [
        {
          "internalType": "string",
          "name": "name",
          "type": "string"
        },
        {
          "internalType": "uint256",
          "name": "price",
          "type": "uint256"
        }
      ],
      "stateMutability": "view",
      "type": "function"
    },
    {
      "inputs": [],
      "name": "symbol",
      "outputs": [
        {
          "internalType": "string",
          "name": "",
          "type": "string"
        }
      ],
      "stateMutability": "view",
      "type": "function"
    },
    {
      "inputs": [],
      "name": "totalSupply",
      "outputs": [
        {
          "internalType": "uint256",
          "name": "",
          "type": "uint256"
        }
      ],
      "stateMutability": "view",
      "type": "function"
    },
    {
      "inputs": [
        {
          "internalType": "address",
          "name": "to",
          "type": "address"
        },
        {
          "internalType": "uint256",
          "name": "amount",
          "type": "uint256"
        }
      ],
      "name": "transfer",
      "outputs": [
        {
          "internalType": "bool",
          "name": "",
          "type": "bool"
        }
      ],
      "stateMutability": "nonpayable",
      "type": "function"
    },
    {
      "inputs": [
        {
          "internalType": "address",
          "name": "from",
          "type": "address"
        },
        {
          "internalType": "address",
          "name": "to",
          "type": "address"
        },
        {
          "internalType": "uint256",
          "name": "amount",
          "type": "uint256"
        }
      ],
      "name": "transferFrom",
      "outputs": [
        {
          "internalType": "bool",
          "name": "",
          "type": "bool"
        }
      ],
      "stateMutability": "nonpayable",
      "type": "function"
    },
    {
      "inputs": [
        {
          "internalType": "address",
          "name": "recipient",
          "type": "address"
        },
        {
          "internalType": "uint256",
          "name": "amount",
          "type": "uint256"
        }
      ],
      "name": "transferTokens",
      "outputs": [],
      "stateMutability": "nonpayable",
      "type": "function"
    },
    {
      "inputs": [
        {
          "internalType": "string",
          "name": "itemName",
          "type": "string"
        },
        {
          "internalType": "uint256",
          "name": "itemPrice",
          "type": "uint256"
        }
      ],
      "name": "updateStoreItem",
      "outputs": [],
      "stateMutability": "nonpayable",
      "type": "function"
    }
  ],
  "bytecode": "0x60806040523480156200001157600080fd5b506040518060400160405280600581526020017f446567656e0000000000000000000000000000000000000000000000000000008152506040518060400160405280600381526020017f44474e000000000000000000000000000000000000000000000000000000000081525081600390816200008f919062000365565b508060049081620000a1919062000365565b50505033600560006101000a81548173ffffffffffffffffffffffffffffffffffffffff021916908373ffffffffffffffffffffffffffffffffffffffff1602179055506200044c565b600081519050919050565b7f4e487b7100000000000000000000000000000000000000000000000000000000600052604160045260246000fd5b7f4e487b7100000000000000000000000000000000000000000000000000000000600052602260045260246000fd5b600060028204905060018216806200016d57607f821691505b60208210810362000183576200018262000125565b5b50919050565b60008190508160005260206000209050919050565b60006020601f8301049050919050565b600082821b905092915050565b600060088302620001ed7fffffffffffffffffffffffffffffffffffffffffffffffffffffffffffffffff82620001ae565b620001f98683620001ae565b95508019841693508086168417925050509392505050565b6000819050919050565b6000819050919050565b600062000246620002406200023a8462000211565b6200021b565b62000211565b9050919050565b6000819050919050565b620002628362000225565b6200027a62000271826200024d565b848454620001bb565b825550505050565b600090565b6200029162000282565b6200029e81848462000257565b505050565b5b81811015620002c657620002ba60008262000287565b600181019050620002a4565b5050565b601f8211156200031557620002df8162000189565b620002ea846200019e565b81016020851015620002fa578190505b6200031262000309856200019e565b830182620002a3565b50505b505050565b600082821c905092915050565b60006200033a600019846008026200031a565b1980831691505092915050565b600062000355838362000327565b9150826002028217905092915050565b6200037082620000eb565b67ffffffffffffffff8111156200038c576200038b620000f6565b5b62000398825462000154565b620003a5828285620002ca565b600060209050601f831160018114620003dd5760008415620003c8578287015190505b620003d4858262000347565b86555062000444565b601f198416620003ed8662000189565b60005b828110156200041757848901518255600182019150602085019450602081019050620003f0565b8683101562000437578489015162000433601f89168262000327565b8355505b6001600288020188555050505b505050505050565b612f52806200045c6000396000f3fe608060405234801561001057600080fd5b50600436106101425760003560e01c80635f515226116100b85780639c8f9f211161007c5780639c8f9f21146103a0578063a457c2d7146103bc578063a9059cbb146103ec578063bdfec54e1461041c578063bec3fa1714610438578063dd62ed3e1461045457610142565b80635f515226146102d457806370a08231146103045780638b87c544146103345780638da5cb5b1461036457806395d89b411461038257610142565b80632d9088bd1161010a5780632d9088bd146101ff578063313ce5671461021d578063395093511461023b57806340c10f191461026b57806342966c681461028757806343f2cdb2146102a357610142565b806306fdde0314610147578063095ea7b3146101655780631222c25a1461019557806318160ddd146101b157806323b872dd146101cf575b600080fd5b61014f610484565b60405161015c9190611a62565b60405180910390f35b61017f600480360381019061017a9190611b2c565b610516565b60405161018c9190611b87565b60405180910390f35b6101af60048036038101906101aa9190611cd7565b610539565b005b6101b96106a5565b6040516101c69190611d2f565b60405180910390f35b6101e960048036038101906101e49190611d4a565b6106af565b6040516101f69190611b87565b60405180910390f35b6102076106de565b6040516102149190611ef5565b60405180910390f35b6102256107d9565b6040516102329190611f33565b60405180910390f35b61025560048036038101906102509190611b2c565b6107e2565b6040516102629190611b87565b60405180910390f35b61028560048036038101906102809190611b2c565b610819565b005b6102a1600480360381019061029c9190611f4e565b6108b7565b005b6102bd60048036038101906102b89190611f4e565b6108c4565b6040516102cb929190611f7b565b60405180910390f35b6102ee60048036038101906102e99190611fab565b610980565b6040516102fb9190611d2f565b60405180910390f35b61031e60048036038101906103199190611fab565b610992565b60405161032b9190611d2f565b60405180910390f35b61034e60048036038101906103499190611fab565b6109da565b60405161035b91906120d7565b60405180910390f35b61036c610b14565b6040516103799190612108565b60405180910390f35b61038a610b3a565b6040516103979190611a62565b60405180910390f35b6103ba60048036038101906103b59190612123565b610bcc565b005b6103d660048036038101906103d19190611b2c565b610d25565b6040516103e39190611b87565b60405180910390f35b61040660048036038101906104019190611b2c565b610d9c565b6040516104139190611b87565b60405180910390f35b61043660048036038101906104319190612123565b610dbf565b005b610452600480360381019061044d9190611b2c565b610ee9565b005b61046e6004803603810190610469919061217f565b610fbd565b60405161047b9190611d2f565b60405180910390f35b606060038054610493906121ee565b80601f01602080910402602001604051908101604052809291908181526020018280546104bf906121ee565b801561050c5780601f106104e15761010080835404028352916020019161050c565b820191906000526020600020905b8154815290600101906020018083116104ef57829003601f168201915b5050505050905090565b600080610521611044565b905061052e81858561104c565b600191505092915050565b600060078260405161054b919061225b565b908152602001604051809103902054905060068054905081106105a3576040517f08c379a000000000000000000000000000000000000000000000000000000000815260040161059a906122be565b60405180910390fd5b6000600682815481106105b9576105b86122de565b5b9060005260206000209060020201600101549050806105d733610992565b1015610618576040517f08c379a000000000000000000000000000000000000000000000000000000000815260040161060f90612359565b60405180910390fd5b6106223382611215565b61062c33846113e2565b3373ffffffffffffffffffffffffffffffffffffffff167fcfc73bdeb47b2856d3c8848ce0e4e49a2b07f9c168994e354dd8b02f3b0682da60068481548110610678576106776122de565b5b906000526020600020906002020160000183604051610698929190612412565b60405180910390a2505050565b6000600254905090565b6000806106ba611044565b90506106c7858285611570565b6106d28585856115fc565b60019150509392505050565b60606006805480602002602001604051908101604052809291908181526020016000905b828210156107d05783829060005260206000209060020201604051806040016040529081600082018054610735906121ee565b80601f0160208091040260200160405190810160405280929190818152602001828054610761906121ee565b80156107ae5780601f10610783576101008083540402835291602001916107ae565b820191906000526020600020905b81548152906001019060200180831161079157829003601f168201915b5050505050815260200160018201548152505081526020019060010190610702565b50505050905090565b60006012905090565b6000806107ed611044565b905061080e8185856107ff8589610fbd565b6108099190612471565b61104c565b600191505092915050565b600560009054906101000a900473ffffffffffffffffffffffffffffffffffffffff1673ffffffffffffffffffffffffffffffffffffffff163373ffffffffffffffffffffffffffffffffffffffff16146108a9576040517f08c379a00000000000000000000000000000000000000000000000000000000081526004016108a090612517565b60405180910390fd5b6108b38282611872565b5050565b6108c13382611215565b50565b600681815481106108d457600080fd5b90600052602060002090600202016000915090508060000180546108f7906121ee565b80601f0160208091040260200160405190810160405280929190818152602001828054610923906121ee565b80156109705780601f1061094557610100808354040283529160200191610970565b820191906000526020600020905b81548152906001019060200180831161095357829003601f168201915b5050505050908060010154905082565b600061098b82610992565b9050919050565b60008060008373ffffffffffffffffffffffffffffffffffffffff1673ffffffffffffffffffffffffffffffffffffffff168152602001908152602001600020549050919050565b6060600860008373ffffffffffffffffffffffffffffffffffffffff1673ffffffffffffffffffffffffffffffffffffffff168152602001908152602001600020805480602002602001604051908101604052809291908181526020016000905b82821015610b095783829060005260206000209060020201604051806040016040529081600082018054610a6e906121ee565b80601f0160208091040260200160405190810160405280929190818152602001828054610a9a906121ee565b8015610ae75780601f10610abc57610100808354040283529160200191610ae7565b820191906000526020600020905b815481529060010190602001808311610aca57829003601f168201915b5050505050815260200160018201548152505081526020019060010190610a3b565b505050509050919050565b600560009054906101000a900473ffffffffffffffffffffffffffffffffffffffff1681565b606060048054610b49906121ee565b80601f0160208091040260200160405190810160405280929190818152602001828054610b75906121ee565b8015610bc25780601f10610b9757610100808354040283529160200191610bc2565b820191906000526020600020905b815481529060010190602001808311610ba557829003601f168201915b5050505050905090565b600560009054906101000a900473ffffffffffffffffffffffffffffffffffffffff1673ffffffffffffffffffffffffffffffffffffffff163373ffffffffffffffffffffffffffffffffffffffff1614610c5c576040517f08c379a0000000000000000000000000000000000000000000000000000000008152600401610c5390612517565b60405180910390fd5b6000600783604051610c6e919061225b565b90815260200160405180910390205490506006805490508110610cc6576040517f08c379a0000000000000000000000000000000000000000000000000000000008152600401610cbd906122be565b60405180910390fd5b60405180604001604052808481526020018381525060068281548110610cef57610cee6122de565b5b90600052602060002090600202016000820151816000019081610d1291906126ce565b5060208201518160010155905050505050565b600080610d30611044565b90506000610d3e8286610fbd565b905083811015610d83576040517f08c379a0000000000000000000000000000000000000000000000000000000008152600401610d7a90612812565b60405180910390fd5b610d90828686840361104c565b60019250505092915050565b600080610da7611044565b9050610db48185856115fc565b600191505092915050565b600560009054906101000a900473ffffffffffffffffffffffffffffffffffffffff1673ffffffffffffffffffffffffffffffffffffffff163373ffffffffffffffffffffffffffffffffffffffff1614610e4f576040517f08c379a0000000000000000000000000000000000000000000000000000000008152600401610e4690612517565b60405180910390fd5b600660405180604001604052808481526020018381525090806001815401808255809150506001900390600052602060002090600202016000909190919091506000820151816000019081610ea491906126ce565b506020820151816001015550506001600680549050610ec39190612832565b600783604051610ed3919061225b565b9081526020016040518091039020819055505050565b8173ffffffffffffffffffffffffffffffffffffffff16600073ffffffffffffffffffffffffffffffffffffffff1603610f58576040517f08c379a0000000000000000000000000000000000000000000000000000000008152600401610f4f906128d8565b60405180910390fd5b80610f6283610992565b1015610fa3576040517f08c379a0000000000000000000000000000000000000000000000000000000008152600401610f9a90612944565b60405180910390fd5b610fad8282610516565b50610fb93383836115fc565b5050565b6000600160008473ffffffffffffffffffffffffffffffffffffffff1673ffffffffffffffffffffffffffffffffffffffff16815260200190815260200160002060008373ffffffffffffffffffffffffffffffffffffffff1673ffffffffffffffffffffffffffffffffffffffff16815260200190815260200160002054905092915050565b600033905090565b600073ffffffffffffffffffffffffffffffffffffffff168373ffffffffffffffffffffffffffffffffffffffff16036110bb576040517f08c379a00000000000000000000000000000000000000000000000000000000081526004016110b2906129d6565b60405180910390fd5b600073ffffffffffffffffffffffffffffffffffffffff168273ffffffffffffffffffffffffffffffffffffffff160361112a576040517f08c379a000000000000000000000000000000000000000000000000000000000815260040161112190612a68565b60405180910390fd5b80600160008573ffffffffffffffffffffffffffffffffffffffff1673ffffffffffffffffffffffffffffffffffffffff16815260200190815260200160002060008473ffffffffffffffffffffffffffffffffffffffff1673ffffffffffffffffffffffffffffffffffffffff168152602001908152602001600020819055508173ffffffffffffffffffffffffffffffffffffffff168373ffffffffffffffffffffffffffffffffffffffff167f8c5be1e5ebec7d5bd14f71427d1e84f3dd0314c0f7b2291e5b200ac8c7c3b925836040516112089190611d2f565b60405180910390a3505050565b600073ffffffffffffffffffffffffffffffffffffffff168273ffffffffffffffffffffffffffffffffffffffff1603611284576040517f08c379a000000000000000000000000000000000000000000000000000000000815260040161127b90612afa565b60405180910390fd5b611290826000836119c8565b60008060008473ffffffffffffffffffffffffffffffffffffffff1673ffffffffffffffffffffffffffffffffffffffff16815260200190815260200160002054905081811015611316576040517f08c379a000000000000000000000000000000000000000000000000000000000815260040161130d90612b8c565b60405180910390fd5b8181036000808573ffffffffffffffffffffffffffffffffffffffff1673ffffffffffffffffffffffffffffffffffffffff1681526020019081526020016000208190555081600260008282540392505081905550600073ffffffffffffffffffffffffffffffffffffffff168373ffffffffffffffffffffffffffffffffffffffff167fddf252ad1be2c89b69c2b068fc378daa952ba7f163c4a11628f55a4df523b3ef846040516113c99190611d2f565b60405180910390a36113dd836000846119cd565b505050565b6000600860008473ffffffffffffffffffffffffffffffffffffffff1673ffffffffffffffffffffffffffffffffffffffff16815260200190815260200160002090506000805b82805490508110156115015783604051602001611446919061225b565b6040516020818303038152906040528051906020012083828154811061146f5761146e6122de565b5b90600052602060002090600202016000016040516020016114909190612c2f565b60405160208183030381529060405280519060200120036114ee578281815481106114be576114bd6122de565b5b906000526020600020906002020160010160008154809291906114e090612c46565b919050555060019150611501565b80806114f990612c46565b915050611429565b508061156a5781604051806040016040528085815260200160018152509080600181540180825580915050600190039060005260206000209060020201600090919091909150600082015181600001908161155c91906126ce565b506020820151816001015550505b50505050565b600061157c8484610fbd565b90507fffffffffffffffffffffffffffffffffffffffffffffffffffffffffffffffff81146115f657818110156115e8576040517f08c379a00000000000000000000000000000000000000000000000000000000081526004016115df90612cda565b60405180910390fd5b6115f5848484840361104c565b5b50505050565b600073ffffffffffffffffffffffffffffffffffffffff168373ffffffffffffffffffffffffffffffffffffffff160361166b576040517f08c379a000000000000000000000000000000000000000000000000000000000815260040161166290612d6c565b60405180910390fd5b600073ffffffffffffffffffffffffffffffffffffffff168273ffffffffffffffffffffffffffffffffffffffff16036116da576040517f08c379a00000000000000000000000000000000000000000000000000000000081526004016116d190612dfe565b60405180910390fd5b6116e58383836119c8565b60008060008573ffffffffffffffffffffffffffffffffffffffff1673ffffffffffffffffffffffffffffffffffffffff1681526020019081526020016000205490508181101561176b576040517f08c379a000000000000000000000000000000000000000000000000000000000815260040161176290612e90565b60405180910390fd5b8181036000808673ffffffffffffffffffffffffffffffffffffffff1673ffffffffffffffffffffffffffffffffffffffff16815260200190815260200160002081905550816000808573ffffffffffffffffffffffffffffffffffffffff1673ffffffffffffffffffffffffffffffffffffffff168152602001908152602001600020600082825401925050819055508273ffffffffffffffffffffffffffffffffffffffff168473ffffffffffffffffffffffffffffffffffffffff167fddf252ad1be2c89b69c2b068fc378daa952ba7f163c4a11628f55a4df523b3ef846040516118599190611d2f565b60405180910390a361186c8484846119cd565b50505050565b600073ffffffffffffffffffffffffffffffffffffffff168273ffffffffffffffffffffffffffffffffffffffff16036118e1576040517f08c379a00000000000000000000000000000000000000000000000000000000081526004016118d890612efc565b60405180910390fd5b6118ed600083836119c8565b80600260008282546118ff9190612471565b92505081905550806000808473ffffffffffffffffffffffffffffffffffffffff1673ffffffffffffffffffffffffffffffffffffffff168152602001908152602001600020600082825401925050819055508173ffffffffffffffffffffffffffffffffffffffff16600073ffffffffffffffffffffffffffffffffffffffff167fddf252ad1be2c89b69c2b068fc378daa952ba7f163c4a11628f55a4df523b3ef836040516119b09190611d2f565b60405180910390a36119c4600083836119cd565b5050565b505050565b505050565b600081519050919050565b600082825260208201905092915050565b60005b83811015611a0c5780820151818401526020810190506119f1565b60008484015250505050565b6000601f19601f8301169050919050565b6000611a34826119d2565b611a3e81856119dd565b9350611a4e8185602086016119ee565b611a5781611a18565b840191505092915050565b60006020820190508181036000830152611a7c8184611a29565b905092915050565b6000604051905090565b600080fd5b600080fd5b600073ffffffffffffffffffffffffffffffffffffffff82169050919050565b6000611ac382611a98565b9050919050565b611ad381611ab8565b8114611ade57600080fd5b50565b600081359050611af081611aca565b92915050565b6000819050919050565b611b0981611af6565b8114611b1457600080fd5b50565b600081359050611b2681611b00565b92915050565b60008060408385031215611b4357611b42611a8e565b5b6000611b5185828601611ae1565b9250506020611b6285828601611b17565b9150509250929050565b60008115159050919050565b611b8181611b6c565b82525050565b6000602082019050611b9c6000830184611b78565b92915050565b600080fd5b600080fd5b7f4e487b7100000000000000000000000000000000000000000000000000000000600052604160045260246000fd5b611be482611a18565b810181811067ffffffffffffffff82111715611c0357611c02611bac565b5b80604052505050565b6000611c16611a84565b9050611c228282611bdb565b919050565b600067ffffffffffffffff821115611c4257611c41611bac565b5b611c4b82611a18565b9050602081019050919050565b82818337600083830152505050565b6000611c7a611c7584611c27565b611c0c565b905082815260208101848484011115611c9657611c95611ba7565b5b611ca1848285611c58565b509392505050565b600082601f830112611cbe57611cbd611ba2565b5b8135611cce848260208601611c67565b91505092915050565b600060208284031215611ced57611cec611a8e565b5b600082013567ffffffffffffffff811115611d0b57611d0a611a93565b5b611d1784828501611ca9565b91505092915050565b611d2981611af6565b82525050565b6000602082019050611d446000830184611d20565b92915050565b600080600060608486031215611d6357611d62611a8e565b5b6000611d7186828701611ae1565b9350506020611d8286828701611ae1565b9250506040611d9386828701611b17565b9150509250925092565b600081519050919050565b600082825260208201905092915050565b6000819050602082019050919050565b600082825260208201905092915050565b6000611de5826119d2565b611def8185611dc9565b9350611dff8185602086016119ee565b611e0881611a18565b840191505092915050565b611e1c81611af6565b82525050565b60006040830160008301518482036000860152611e3f8282611dda565b9150506020830151611e546020860182611e13565b508091505092915050565b6000611e6b8383611e22565b905092915050565b6000602082019050919050565b6000611e8b82611d9d565b611e958185611da8565b935083602082028501611ea785611db9565b8060005b85811015611ee35784840389528151611ec48582611e5f565b9450611ecf83611e73565b925060208a01995050600181019050611eab565b50829750879550505050505092915050565b60006020820190508181036000830152611f0f8184611e80565b905092915050565b600060ff82169050919050565b611f2d81611f17565b82525050565b6000602082019050611f486000830184611f24565b92915050565b600060208284031215611f6457611f63611a8e565b5b6000611f7284828501611b17565b91505092915050565b60006040820190508181036000830152611f958185611a29565b9050611fa46020830184611d20565b9392505050565b600060208284031215611fc157611fc0611a8e565b5b6000611fcf84828501611ae1565b91505092915050565b600081519050919050565b600082825260208201905092915050565b6000819050602082019050919050565b600060408301600083015184820360008601526120218282611dda565b91505060208301516120366020860182611e13565b508091505092915050565b600061204d8383612004565b905092915050565b6000602082019050919050565b600061206d82611fd8565b6120778185611fe3565b93508360208202850161208985611ff4565b8060005b858110156120c557848403895281516120a68582612041565b94506120b183612055565b925060208a0199505060018101905061208d565b50829750879550505050505092915050565b600060208201905081810360008301526120f18184612062565b905092915050565b61210281611ab8565b82525050565b600060208201905061211d60008301846120f9565b92915050565b6000806040838503121561213a57612139611a8e565b5b600083013567ffffffffffffffff81111561215857612157611a93565b5b61216485828601611ca9565b925050602061217585828601611b17565b9150509250929050565b6000806040838503121561219657612195611a8e565b5b60006121a485828601611ae1565b92505060206121b585828601611ae1565b9150509250929050565b7f4e487b7100000000000000000000000000000000000000000000000000000000600052602260045260246000fd5b6000600282049050600182168061220657607f821691505b602082108103612219576122186121bf565b5b50919050565b600081905092915050565b6000612235826119d2565b61223f818561221f565b935061224f8185602086016119ee565b80840191505092915050565b6000612267828461222a565b915081905092915050565b7f4974656d20646f6573206e6f7420657869737400000000000000000000000000600082015250565b60006122a86013836119dd565b91506122b382612272565b602082019050919050565b600060208201905081810360008301526122d78161229b565b9050919050565b7f4e487b7100000000000000000000000000000000000000000000000000000000600052603260045260246000fd5b7f496e73756666696369656e7420616d6f756e74206f6620746f6b656e73000000600082015250565b6000612343601d836119dd565b915061234e8261230d565b602082019050919050565b6000602082019050818103600083015261237281612336565b9050919050565b60008190508160005260206000209050919050565b6000815461239b816121ee565b6123a581866119dd565b945060018216600081146123c057600181146123d657612409565b60ff198316865281151560200286019350612409565b6123df85612379565b60005b83811015612401578154818901526001820191506020810190506123e2565b808801955050505b50505092915050565b6000604082019050818103600083015261242c818561238e565b905061243b6020830184611d20565b9392505050565b7f4e487b7100000000000000000000000000000000000000000000000000000000600052601160045260246000fd5b600061247c82611af6565b915061248783611af6565b925082820190508082111561249f5761249e612442565b5b92915050565b7f4f6e6c792074686520636f6e7472616374206f776e65722063616e2063616c6c60008201527f20746869732066756e6374696f6e000000000000000000000000000000000000602082015250565b6000612501602e836119dd565b915061250c826124a5565b604082019050919050565b60006020820190508181036000830152612530816124f4565b9050919050565b60006020601f8301049050919050565b600082821b905092915050565b6000600883026125847fffffffffffffffffffffffffffffffffffffffffffffffffffffffffffffffff82612547565b61258e8683612547565b95508019841693508086168417925050509392505050565b6000819050919050565b60006125cb6125c66125c184611af6565b6125a6565b611af6565b9050919050565b6000819050919050565b6125e5836125b0565b6125f96125f1826125d2565b848454612554565b825550505050565b600090565b61260e612601565b6126198184846125dc565b505050565b5b8181101561263d57612632600082612606565b60018101905061261f565b5050565b601f8211156126825761265381612379565b61265c84612537565b8101602085101561266b578190505b61267f61267785612537565b83018261261e565b50505b505050565b600082821c905092915050565b60006126a560001984600802612687565b1980831691505092915050565b60006126be8383612694565b9150826002028217905092915050565b6126d7826119d2565b67ffffffffffffffff8111156126f0576126ef611bac565b5b6126fa82546121ee565b612705828285612641565b600060209050601f8311600181146127385760008415612726578287015190505b61273085826126b2565b865550612798565b601f19841661274686612379565b60005b8281101561276e57848901518255600182019150602085019450602081019050612749565b8683101561278b5784890151612787601f891682612694565b8355505b6001600288020188555050505b505050505050565b7f45524332303a2064656372656173656420616c6c6f77616e63652062656c6f7760008201527f207a65726f000000000000000000000000000000000000000000000000000000602082015250565b60006127fc6025836119dd565b9150612807826127a0565b604082019050919050565b6000602082019050818103600083015261282b816127ef565b9050919050565b600061283d82611af6565b915061284883611af6565b92508282039050818111156128605761285f612442565b5b92915050565b7f4163636f756e74207769746820696e64657820302063616e6e6f74207472616e60008201527f7366657220746f6b656e00000000000000000000000000000000000000000000602082015250565b60006128c2602a836119dd565b91506128cd82612866565b604082019050919050565b600060208201905081810360008301526128f1816128b5565b9050919050565b7f496e73756666696369656e7420616d6f756e74206f6620746f6b656e00000000600082015250565b600061292e601c836119dd565b9150612939826128f8565b602082019050919050565b6000602082019050818103600083015261295d81612921565b9050919050565b7f45524332303a20617070726f76652066726f6d20746865207a65726f2061646460008201527f7265737300000000000000000000000000000000000000000000000000000000602082015250565b60006129c06024836119dd565b91506129cb82612964565b604082019050919050565b600060208201905081810360008301526129ef816129b3565b9050919050565b7f45524332303a20617070726f766520746f20746865207a65726f20616464726560008201527f7373000000000000000000000000000000000000000000000000000000000000602082015250565b6000612a526022836119dd565b9150612a5d826129f6565b604082019050919050565b60006020820190508181036000830152612a8181612a45565b9050919050565b7f45524332303a206275726e2066726f6d20746865207a65726f2061646472657360008201527f7300000000000000000000000000000000000000000000000000000000000000602082015250565b6000612ae46021836119dd565b9150612aef82612a88565b604082019050919050565b60006020820190508181036000830152612b1381612ad7565b9050919050565b7f45524332303a206275726e20616d6f756e7420657863656564732062616c616e60008201527f6365000000000000000000000000000000000000000000000000000000000000602082015250565b6000612b766022836119dd565b9150612b8182612b1a565b604082019050919050565b60006020820190508181036000830152612ba581612b69565b9050919050565b60008154612bb9816121ee565b612bc3818661221f565b94506001821660008114612bde5760018114612bf357612c26565b60ff1983168652811515820286019350612c26565b612bfc85612379565b60005b83811015612c1e57815481890152600182019150602081019050612bff565b838801955050505b50505092915050565b6000612c3b8284612bac565b915081905092915050565b6000612c5182611af6565b91507fffffffffffffffffffffffffffffffffffffffffffffffffffffffffffffffff8203612c8357612c82612442565b5b600182019050919050565b7f45524332303a20696e73756666696369656e7420616c6c6f77616e6365000000600082015250565b6000612cc4601d836119dd565b9150612ccf82612c8e565b602082019050919050565b60006020820190508181036000830152612cf381612cb7565b9050919050565b7f45524332303a207472616e736665722066726f6d20746865207a65726f20616460008201527f6472657373000000000000000000000000000000000000000000000000000000602082015250565b6000612d566025836119dd565b9150612d6182612cfa565b604082019050919050565b60006020820190508181036000830152612d8581612d49565b9050919050565b7f45524332303a207472616e7366657220746f20746865207a65726f206164647260008201527f6573730000000000000000000000000000000000000000000000000000000000602082015250565b6000612de86023836119dd565b9150612df382612d8c565b604082019050919050565b60006020820190508181036000830152612e1781612ddb565b9050919050565b7f45524332303a207472616e7366657220616d6f756e742065786365656473206260008201527f616c616e63650000000000000000000000000000000000000000000000000000602082015250565b6000612e7a6026836119dd565b9150612e8582612e1e565b604082019050919050565b60006020820190508181036000830152612ea981612e6d565b9050919050565b7f45524332303a206d696e7420746f20746865207a65726f206164647265737300600082015250565b6000612ee6601f836119dd565b9150612ef182612eb0565b602082019050919050565b60006020820190508181036000830152612f1581612ed9565b905091905056fea264697066735822122081a23148e1aed673ef6dd5006d43bd4e9f4342b36f479923bd5deaa388b0746864736f6c63430008140033",
  "linkReferences": {},
  "deployedLinkReferences": {}
}