{
  "_format": "hh-sol-artifact-1",
  "contractName": "DegenToken",
  "sourceName": "contracts/DegenToken.sol",
  "abi": [
    {
      "inputs": [],
      "stateMutability": "nonpayable",
      "type": "constructor"
    },
    {
      "anonymous": false,
      "inputs": [
        {
          "indexed": true,
          "internalType": "address",
          "name": "owner",
          "type": "address"
        },
        {
          "indexed": true,
          "internalType": "address",
          "name": "spender",
          "type": "address"
        },
        {
          "indexed": false,
          "internalType": "uint256",
          "name": "value",
          "type": "uint256"
        }
      ],
      "name": "Approval",
      "type": "event"
    },
    {
      "anonymous": false,
      "inputs": [
        {
          "indexed": true,
          "internalType": "address",
          "name": "player",
          "type": "address"
        },
        {
          "indexed": false,
          "internalType": "string",
          "name": "item",
          "type": "string"
        },
        {
          "indexed": false,
          "internalType": "uint256",
          "name": "amount",
          "type": "uint256"
        }
      ],
      "name": "Redeemed",
      "type": "event"
    },
    {
      "anonymous": false,
      "inputs": [
        {
          "indexed": true,
          "internalType": "address",
          "name": "from",
          "type": "address"
        },
        {
          "indexed": true,
          "internalType": "address",
          "name": "to",
          "type": "address"
        },
        {
          "indexed": false,
          "internalType": "uint256",
          "name": "value",
          "type": "uint256"
        }
      ],
      "name": "Transfer",
      "type": "event"
    },
    {
      "inputs": [
        {
          "internalType": "string",
          "name": "itemName",
          "type": "string"
        },
        {
          "internalType": "uint256",
          "name": "itemPrice",
          "type": "uint256"
        }
      ],
      "name": "addStoreItem",
      "outputs": [],
      "stateMutability": "nonpayable",
      "type": "function"
    },
    {
      "inputs": [
        {
          "internalType": "address",
          "name": "owner",
          "type": "address"
        },
        {
          "internalType": "address",
          "name": "spender",
          "type": "address"
        }
      ],
      "name": "allowance",
      "outputs": [
        {
          "internalType": "uint256",
          "name": "",
          "type": "uint256"
        }
      ],
      "stateMutability": "view",
      "type": "function"
    },
    {
      "inputs": [
        {
          "internalType": "address",
          "name": "spender",
          "type": "address"
        },
        {
          "internalType": "uint256",
          "name": "amount",
          "type": "uint256"
        }
      ],
      "name": "approve",
      "outputs": [
        {
          "internalType": "bool",
          "name": "",
          "type": "bool"
        }
      ],
      "stateMutability": "nonpayable",
      "type": "function"
    },
    {
      "inputs": [
        {
          "internalType": "address",
          "name": "account",
          "type": "address"
        }
      ],
      "name": "balanceOf",
      "outputs": [
        {
          "internalType": "uint256",
          "name": "",
          "type": "uint256"
        }
      ],
      "stateMutability": "view",
      "type": "function"
    },
    {
      "inputs": [
        {
          "internalType": "uint256",
          "name": "amount",
          "type": "uint256"
        }
      ],
      "name": "burn",
      "outputs": [],
      "stateMutability": "nonpayable",
      "type": "function"
    },
    {
      "inputs": [
        {
          "internalType": "address",
          "name": "account",
          "type": "address"
        }
      ],
      "name": "checkBalance",
      "outputs": [
        {
          "internalType": "uint256",
          "name": "",
          "type": "uint256"
        }
      ],
      "stateMutability": "view",
      "type": "function"
    },
    {
      "inputs": [],
      "name": "decimals",
      "outputs": [
        {
          "internalType": "uint8",
          "name": "",
          "type": "uint8"
        }
      ],
      "stateMutability": "view",
      "type": "function"
    },
    {
      "inputs": [
        {
          "internalType": "address",
          "name": "spender",
          "type": "address"
        },
        {
          "internalType": "uint256",
          "name": "subtractedValue",
          "type": "uint256"
        }
      ],
      "name": "decreaseAllowance",
      "outputs": [
        {
          "internalType": "bool",
          "name": "",
          "type": "bool"
        }
      ],
      "stateMutability": "nonpayable",
      "type": "function"
    },
    {
      "inputs": [],
      "name": "getStoreItems",
      "outputs": [
        {
          "components": [
            {
              "internalType": "string",
              "name": "name",
              "type": "string"
            },
            {
              "internalType": "uint256",
              "name": "price",
              "type": "uint256"
            }
          ],
          "internalType": "struct DegenToken.StoreItem[]",
          "name": "",
          "type": "tuple[]"
        }
      ],
      "stateMutability": "view",
      "type": "function"
    },
    {
      "inputs": [
        {
          "internalType": "address",
          "name": "spender",
          "type": "address"
        },
        {
          "internalType": "uint256",
          "name": "addedValue",
          "type": "uint256"
        }
      ],
      "name": "increaseAllowance",
      "outputs": [
        {
          "internalType": "bool",
          "name": "",
          "type": "bool"
        }
      ],
      "stateMutability": "nonpayable",
      "type": "function"
    },
    {
      "inputs": [
        {
          "internalType": "address",
          "name": "to",
          "type": "address"
        },
        {
          "internalType": "uint256",
          "name": "amount",
          "type": "uint256"
        }
      ],
      "name": "mint",
      "outputs": [],
      "stateMutability": "nonpayable",
      "type": "function"
    },
    {
      "inputs": [],
      "name": "name",
      "outputs": [
        {
          "internalType": "string",
          "name": "",
          "type": "string"
        }
      ],
      "stateMutability": "view",
      "type": "function"
    },
    {
      "inputs": [],
      "name": "owner",
      "outputs": [
        {
          "internalType": "address",
          "name": "",
          "type": "address"
        }
      ],
      "stateMutability": "view",
      "type": "function"
    },
    {
      "inputs": [
        {
          "internalType": "string",
          "name": "itemName",
          "type": "string"
        }
      ],
      "name": "redeem",
      "outputs": [],
      "stateMutability": "nonpayable",
      "type": "function"
    },
    {
      "inputs": [
        {
          "internalType": "uint256",
          "name": "",
          "type": "uint256"
        }
      ],
      "name": "storeItems",
      "outputs": [
        {
          "internalType": "string",
          "name": "name",
          "type": "string"
        },
        {
          "internalType": "uint256",
          "name": "price",
          "type": "uint256"
        }
      ],
      "stateMutability": "view",
      "type": "function"
    },
    {
      "inputs": [],
      "name": "symbol",
      "outputs": [
        {
          "internalType": "string",
          "name": "",
          "type": "string"
        }
      ],
      "stateMutability": "view",
      "type": "function"
    },
    {
      "inputs": [],
      "name": "totalSupply",
      "outputs": [
        {
          "internalType": "uint256",
          "name": "",
          "type": "uint256"
        }
      ],
      "stateMutability": "view",
      "type": "function"
    },
    {
      "inputs": [
        {
          "internalType": "address",
          "name": "to",
          "type": "address"
        },
        {
          "internalType": "uint256",
          "name": "amount",
          "type": "uint256"
        }
      ],
      "name": "transfer",
      "outputs": [
        {
          "internalType": "bool",
          "name": "",
          "type": "bool"
        }
      ],
      "stateMutability": "nonpayable",
      "type": "function"
    },
    {
      "inputs": [
        {
          "internalType": "address",
          "name": "from",
          "type": "address"
        },
        {
          "internalType": "address",
          "name": "to",
          "type": "address"
        },
        {
          "internalType": "uint256",
          "name": "amount",
          "type": "uint256"
        }
      ],
      "name": "transferFrom",
      "outputs": [
        {
          "internalType": "bool",
          "name": "",
          "type": "bool"
        }
      ],
      "stateMutability": "nonpayable",
      "type": "function"
    },
    {
      "inputs": [
        {
          "internalType": "address",
          "name": "recipient",
          "type": "address"
        },
        {
          "internalType": "uint256",
          "name": "amount",
          "type": "uint256"
        }
      ],
      "name": "transferTokens",
      "outputs": [],
      "stateMutability": "nonpayable",
      "type": "function"
    },
    {
      "inputs": [
        {
          "internalType": "string",
          "name": "itemName",
          "type": "string"
        },
        {
          "internalType": "uint256",
          "name": "itemPrice",
          "type": "uint256"
        }
      ],
      "name": "updateStoreItem",
      "outputs": [],
      "stateMutability": "nonpayable",
      "type": "function"
    }
  ],
  "bytecode": "0x60806040523480156200001157600080fd5b506040518060400160405280600581526020017f446567656e0000000000000000000000000000000000000000000000000000008152506040518060400160405280600381526020017f44474e000000000000000000000000000000000000000000000000000000000081525081600390816200008f919062000365565b508060049081620000a1919062000365565b50505033600560006101000a81548173ffffffffffffffffffffffffffffffffffffffff021916908373ffffffffffffffffffffffffffffffffffffffff1602179055506200044c565b600081519050919050565b7f4e487b7100000000000000000000000000000000000000000000000000000000600052604160045260246000fd5b7f4e487b7100000000000000000000000000000000000000000000000000000000600052602260045260246000fd5b600060028204905060018216806200016d57607f821691505b60208210810362000183576200018262000125565b5b50919050565b60008190508160005260206000209050919050565b60006020601f8301049050919050565b600082821b905092915050565b600060088302620001ed7fffffffffffffffffffffffffffffffffffffffffffffffffffffffffffffffff82620001ae565b620001f98683620001ae565b95508019841693508086168417925050509392505050565b6000819050919050565b6000819050919050565b600062000246620002406200023a8462000211565b6200021b565b62000211565b9050919050565b6000819050919050565b620002628362000225565b6200027a62000271826200024d565b848454620001bb565b825550505050565b600090565b6200029162000282565b6200029e81848462000257565b505050565b5b81811015620002c657620002ba60008262000287565b600181019050620002a4565b5050565b601f8211156200031557620002df8162000189565b620002ea846200019e565b81016020851015620002fa578190505b6200031262000309856200019e565b830182620002a3565b50505b505050565b600082821c905092915050565b60006200033a600019846008026200031a565b1980831691505092915050565b600062000355838362000327565b9150826002028217905092915050565b6200037082620000eb565b67ffffffffffffffff8111156200038c576200038b620000f6565b5b62000398825462000154565b620003a5828285620002ca565b600060209050601f831160018114620003dd5760008415620003c8578287015190505b620003d4858262000347565b86555062000444565b601f198416620003ed8662000189565b60005b828110156200041757848901518255600182019150602085019450602081019050620003f0565b8683101562000437578489015162000433601f89168262000327565b8355505b6001600288020188555050505b505050505050565b612a42806200045c6000396000f3fe608060405234801561001057600080fd5b50600436106101375760003560e01c806343f2cdb2116100b85780639c8f9f211161007c5780639c8f9f2114610365578063a457c2d714610381578063a9059cbb146103b1578063bdfec54e146103e1578063bec3fa17146103fd578063dd62ed3e1461041957610137565b806343f2cdb2146102985780635f515226146102c957806370a08231146102f95780638da5cb5b1461032957806395d89b411461034757610137565b80632d9088bd116100ff5780632d9088bd146101f4578063313ce56714610212578063395093511461023057806340c10f191461026057806342966c681461027c57610137565b806306fdde031461013c578063095ea7b31461015a5780631222c25a1461018a57806318160ddd146101a657806323b872dd146101c4575b600080fd5b610144610449565b6040516101519190611755565b60405180910390f35b610174600480360381019061016f919061181f565b6104db565b604051610181919061187a565b60405180910390f35b6101a4600480360381019061019f91906119ca565b6104fe565b005b6101ae610660565b6040516101bb9190611a22565b60405180910390f35b6101de60048036038101906101d99190611a3d565b61066a565b6040516101eb919061187a565b60405180910390f35b6101fc610699565b6040516102099190611be8565b60405180910390f35b61021a610794565b6040516102279190611c26565b60405180910390f35b61024a6004803603810190610245919061181f565b61079d565b604051610257919061187a565b60405180910390f35b61027a6004803603810190610275919061181f565b6107d4565b005b61029660048036038101906102919190611c41565b610872565b005b6102b260048036038101906102ad9190611c41565b61087f565b6040516102c0929190611c6e565b60405180910390f35b6102e360048036038101906102de9190611c9e565b61093b565b6040516102f09190611a22565b60405180910390f35b610313600480360381019061030e9190611c9e565b61094d565b6040516103209190611a22565b60405180910390f35b610331610995565b60405161033e9190611cda565b60405180910390f35b61034f6109bb565b60405161035c9190611755565b60405180910390f35b61037f600480360381019061037a9190611cf5565b610a4d565b005b61039b6004803603810190610396919061181f565b610ba6565b6040516103a8919061187a565b60405180910390f35b6103cb60048036038101906103c6919061181f565b610c1d565b6040516103d8919061187a565b60405180910390f35b6103fb60048036038101906103f69190611cf5565b610c40565b005b6104176004803603810190610412919061181f565b610d6a565b005b610433600480360381019061042e9190611d51565b610e3e565b6040516104409190611a22565b60405180910390f35b60606003805461045890611dc0565b80601f016020809104026020016040519081016040528092919081815260200182805461048490611dc0565b80156104d15780601f106104a6576101008083540402835291602001916104d1565b820191906000526020600020905b8154815290600101906020018083116104b457829003601f168201915b5050505050905090565b6000806104e6610ec5565b90506104f3818585610ecd565b600191505092915050565b60006007826040516105109190611e2d565b90815260200160405180910390205490506006805490508110610568576040517f08c379a000000000000000000000000000000000000000000000000000000000815260040161055f90611e90565b60405180910390fd5b60006006828154811061057e5761057d611eb0565b5b90600052602060002090600202016001015490508061059c3361094d565b10156105dd576040517f08c379a00000000000000000000000000000000000000000000000000000000081526004016105d490611f2b565b60405180910390fd5b6105e73382611096565b3373ffffffffffffffffffffffffffffffffffffffff167fcfc73bdeb47b2856d3c8848ce0e4e49a2b07f9c168994e354dd8b02f3b0682da6006848154811061063357610632611eb0565b5b906000526020600020906002020160000183604051610653929190611fe4565b60405180910390a2505050565b6000600254905090565b600080610675610ec5565b9050610682858285611263565b61068d8585856112ef565b60019150509392505050565b60606006805480602002602001604051908101604052809291908181526020016000905b8282101561078b57838290600052602060002090600202016040518060400160405290816000820180546106f090611dc0565b80601f016020809104026020016040519081016040528092919081815260200182805461071c90611dc0565b80156107695780601f1061073e57610100808354040283529160200191610769565b820191906000526020600020905b81548152906001019060200180831161074c57829003601f168201915b50505050508152602001600182015481525050815260200190600101906106bd565b50505050905090565b60006012905090565b6000806107a8610ec5565b90506107c98185856107ba8589610e3e565b6107c49190612043565b610ecd565b600191505092915050565b600560009054906101000a900473ffffffffffffffffffffffffffffffffffffffff1673ffffffffffffffffffffffffffffffffffffffff163373ffffffffffffffffffffffffffffffffffffffff1614610864576040517f08c379a000000000000000000000000000000000000000000000000000000000815260040161085b906120e9565b60405180910390fd5b61086e8282611565565b5050565b61087c3382611096565b50565b6006818154811061088f57600080fd5b90600052602060002090600202016000915090508060000180546108b290611dc0565b80601f01602080910402602001604051908101604052809291908181526020018280546108de90611dc0565b801561092b5780601f106109005761010080835404028352916020019161092b565b820191906000526020600020905b81548152906001019060200180831161090e57829003601f168201915b5050505050908060010154905082565b60006109468261094d565b9050919050565b60008060008373ffffffffffffffffffffffffffffffffffffffff1673ffffffffffffffffffffffffffffffffffffffff168152602001908152602001600020549050919050565b600560009054906101000a900473ffffffffffffffffffffffffffffffffffffffff1681565b6060600480546109ca90611dc0565b80601f01602080910402602001604051908101604052809291908181526020018280546109f690611dc0565b8015610a435780601f10610a1857610100808354040283529160200191610a43565b820191906000526020600020905b815481529060010190602001808311610a2657829003601f168201915b5050505050905090565b600560009054906101000a900473ffffffffffffffffffffffffffffffffffffffff1673ffffffffffffffffffffffffffffffffffffffff163373ffffffffffffffffffffffffffffffffffffffff1614610add576040517f08c379a0000000000000000000000000000000000000000000000000000000008152600401610ad4906120e9565b60405180910390fd5b6000600783604051610aef9190611e2d565b90815260200160405180910390205490506006805490508110610b47576040517f08c379a0000000000000000000000000000000000000000000000000000000008152600401610b3e90611e90565b60405180910390fd5b60405180604001604052808481526020018381525060068281548110610b7057610b6f611eb0565b5b90600052602060002090600202016000820151816000019081610b9391906122a0565b5060208201518160010155905050505050565b600080610bb1610ec5565b90506000610bbf8286610e3e565b905083811015610c04576040517f08c379a0000000000000000000000000000000000000000000000000000000008152600401610bfb906123e4565b60405180910390fd5b610c118286868403610ecd565b60019250505092915050565b600080610c28610ec5565b9050610c358185856112ef565b600191505092915050565b600560009054906101000a900473ffffffffffffffffffffffffffffffffffffffff1673ffffffffffffffffffffffffffffffffffffffff163373ffffffffffffffffffffffffffffffffffffffff1614610cd0576040517f08c379a0000000000000000000000000000000000000000000000000000000008152600401610cc7906120e9565b60405180910390fd5b600660405180604001604052808481526020018381525090806001815401808255809150506001900390600052602060002090600202016000909190919091506000820151816000019081610d2591906122a0565b506020820151816001015550506001600680549050610d449190612404565b600783604051610d549190611e2d565b9081526020016040518091039020819055505050565b8173ffffffffffffffffffffffffffffffffffffffff16600073ffffffffffffffffffffffffffffffffffffffff1603610dd9576040517f08c379a0000000000000000000000000000000000000000000000000000000008152600401610dd0906124aa565b60405180910390fd5b80610de38361094d565b1015610e24576040517f08c379a0000000000000000000000000000000000000000000000000000000008152600401610e1b90612516565b60405180910390fd5b610e2e82826104db565b50610e3a3383836112ef565b5050565b6000600160008473ffffffffffffffffffffffffffffffffffffffff1673ffffffffffffffffffffffffffffffffffffffff16815260200190815260200160002060008373ffffffffffffffffffffffffffffffffffffffff1673ffffffffffffffffffffffffffffffffffffffff16815260200190815260200160002054905092915050565b600033905090565b600073ffffffffffffffffffffffffffffffffffffffff168373ffffffffffffffffffffffffffffffffffffffff1603610f3c576040517f08c379a0000000000000000000000000000000000000000000000000000000008152600401610f33906125a8565b60405180910390fd5b600073ffffffffffffffffffffffffffffffffffffffff168273ffffffffffffffffffffffffffffffffffffffff1603610fab576040517f08c379a0000000000000000000000000000000000000000000000000000000008152600401610fa29061263a565b60405180910390fd5b80600160008573ffffffffffffffffffffffffffffffffffffffff1673ffffffffffffffffffffffffffffffffffffffff16815260200190815260200160002060008473ffffffffffffffffffffffffffffffffffffffff1673ffffffffffffffffffffffffffffffffffffffff168152602001908152602001600020819055508173ffffffffffffffffffffffffffffffffffffffff168373ffffffffffffffffffffffffffffffffffffffff167f8c5be1e5ebec7d5bd14f71427d1e84f3dd0314c0f7b2291e5b200ac8c7c3b925836040516110899190611a22565b60405180910390a3505050565b600073ffffffffffffffffffffffffffffffffffffffff168273ffffffffffffffffffffffffffffffffffffffff1603611105576040517f08c379a00000000000000000000000000000000000000000000000000000000081526004016110fc906126cc565b60405180910390fd5b611111826000836116bb565b60008060008473ffffffffffffffffffffffffffffffffffffffff1673ffffffffffffffffffffffffffffffffffffffff16815260200190815260200160002054905081811015611197576040517f08c379a000000000000000000000000000000000000000000000000000000000815260040161118e9061275e565b60405180910390fd5b8181036000808573ffffffffffffffffffffffffffffffffffffffff1673ffffffffffffffffffffffffffffffffffffffff1681526020019081526020016000208190555081600260008282540392505081905550600073ffffffffffffffffffffffffffffffffffffffff168373ffffffffffffffffffffffffffffffffffffffff167fddf252ad1be2c89b69c2b068fc378daa952ba7f163c4a11628f55a4df523b3ef8460405161124a9190611a22565b60405180910390a361125e836000846116c0565b505050565b600061126f8484610e3e565b90507fffffffffffffffffffffffffffffffffffffffffffffffffffffffffffffffff81146112e957818110156112db576040517f08c379a00000000000000000000000000000000000000000000000000000000081526004016112d2906127ca565b60405180910390fd5b6112e88484848403610ecd565b5b50505050565b600073ffffffffffffffffffffffffffffffffffffffff168373ffffffffffffffffffffffffffffffffffffffff160361135e576040517f08c379a00000000000000000000000000000000000000000000000000000000081526004016113559061285c565b60405180910390fd5b600073ffffffffffffffffffffffffffffffffffffffff168273ffffffffffffffffffffffffffffffffffffffff16036113cd576040517f08c379a00000000000000000000000000000000000000000000000000000000081526004016113c4906128ee565b60405180910390fd5b6113d88383836116bb565b60008060008573ffffffffffffffffffffffffffffffffffffffff1673ffffffffffffffffffffffffffffffffffffffff1681526020019081526020016000205490508181101561145e576040517f08c379a000000000000000000000000000000000000000000000000000000000815260040161145590612980565b60405180910390fd5b8181036000808673ffffffffffffffffffffffffffffffffffffffff1673ffffffffffffffffffffffffffffffffffffffff16815260200190815260200160002081905550816000808573ffffffffffffffffffffffffffffffffffffffff1673ffffffffffffffffffffffffffffffffffffffff168152602001908152602001600020600082825401925050819055508273ffffffffffffffffffffffffffffffffffffffff168473ffffffffffffffffffffffffffffffffffffffff167fddf252ad1be2c89b69c2b068fc378daa952ba7f163c4a11628f55a4df523b3ef8460405161154c9190611a22565b60405180910390a361155f8484846116c0565b50505050565b600073ffffffffffffffffffffffffffffffffffffffff168273ffffffffffffffffffffffffffffffffffffffff16036115d4576040517f08c379a00000000000000000000000000000000000000000000000000000000081526004016115cb906129ec565b60405180910390fd5b6115e0600083836116bb565b80600260008282546115f29190612043565b92505081905550806000808473ffffffffffffffffffffffffffffffffffffffff1673ffffffffffffffffffffffffffffffffffffffff168152602001908152602001600020600082825401925050819055508173ffffffffffffffffffffffffffffffffffffffff16600073ffffffffffffffffffffffffffffffffffffffff167fddf252ad1be2c89b69c2b068fc378daa952ba7f163c4a11628f55a4df523b3ef836040516116a39190611a22565b60405180910390a36116b7600083836116c0565b5050565b505050565b505050565b600081519050919050565b600082825260208201905092915050565b60005b838110156116ff5780820151818401526020810190506116e4565b60008484015250505050565b6000601f19601f8301169050919050565b6000611727826116c5565b61173181856116d0565b93506117418185602086016116e1565b61174a8161170b565b840191505092915050565b6000602082019050818103600083015261176f818461171c565b905092915050565b6000604051905090565b600080fd5b600080fd5b600073ffffffffffffffffffffffffffffffffffffffff82169050919050565b60006117b68261178b565b9050919050565b6117c6816117ab565b81146117d157600080fd5b50565b6000813590506117e3816117bd565b92915050565b6000819050919050565b6117fc816117e9565b811461180757600080fd5b50565b600081359050611819816117f3565b92915050565b6000806040838503121561183657611835611781565b5b6000611844858286016117d4565b92505060206118558582860161180a565b9150509250929050565b60008115159050919050565b6118748161185f565b82525050565b600060208201905061188f600083018461186b565b92915050565b600080fd5b600080fd5b7f4e487b7100000000000000000000000000000000000000000000000000000000600052604160045260246000fd5b6118d78261170b565b810181811067ffffffffffffffff821117156118f6576118f561189f565b5b80604052505050565b6000611909611777565b905061191582826118ce565b919050565b600067ffffffffffffffff8211156119355761193461189f565b5b61193e8261170b565b9050602081019050919050565b82818337600083830152505050565b600061196d6119688461191a565b6118ff565b9050828152602081018484840111156119895761198861189a565b5b61199484828561194b565b509392505050565b600082601f8301126119b1576119b0611895565b5b81356119c184826020860161195a565b91505092915050565b6000602082840312156119e0576119df611781565b5b600082013567ffffffffffffffff8111156119fe576119fd611786565b5b611a0a8482850161199c565b91505092915050565b611a1c816117e9565b82525050565b6000602082019050611a376000830184611a13565b92915050565b600080600060608486031215611a5657611a55611781565b5b6000611a64868287016117d4565b9350506020611a75868287016117d4565b9250506040611a868682870161180a565b9150509250925092565b600081519050919050565b600082825260208201905092915050565b6000819050602082019050919050565b600082825260208201905092915050565b6000611ad8826116c5565b611ae28185611abc565b9350611af28185602086016116e1565b611afb8161170b565b840191505092915050565b611b0f816117e9565b82525050565b60006040830160008301518482036000860152611b328282611acd565b9150506020830151611b476020860182611b06565b508091505092915050565b6000611b5e8383611b15565b905092915050565b6000602082019050919050565b6000611b7e82611a90565b611b888185611a9b565b935083602082028501611b9a85611aac565b8060005b85811015611bd65784840389528151611bb78582611b52565b9450611bc283611b66565b925060208a01995050600181019050611b9e565b50829750879550505050505092915050565b60006020820190508181036000830152611c028184611b73565b905092915050565b600060ff82169050919050565b611c2081611c0a565b82525050565b6000602082019050611c3b6000830184611c17565b92915050565b600060208284031215611c5757611c56611781565b5b6000611c658482850161180a565b91505092915050565b60006040820190508181036000830152611c88818561171c565b9050611c976020830184611a13565b9392505050565b600060208284031215611cb457611cb3611781565b5b6000611cc2848285016117d4565b91505092915050565b611cd4816117ab565b82525050565b6000602082019050611cef6000830184611ccb565b92915050565b60008060408385031215611d0c57611d0b611781565b5b600083013567ffffffffffffffff811115611d2a57611d29611786565b5b611d368582860161199c565b9250506020611d478582860161180a565b9150509250929050565b60008060408385031215611d6857611d67611781565b5b6000611d76858286016117d4565b9250506020611d87858286016117d4565b9150509250929050565b7f4e487b7100000000000000000000000000000000000000000000000000000000600052602260045260246000fd5b60006002820490506001821680611dd857607f821691505b602082108103611deb57611dea611d91565b5b50919050565b600081905092915050565b6000611e07826116c5565b611e118185611df1565b9350611e218185602086016116e1565b80840191505092915050565b6000611e398284611dfc565b915081905092915050565b7f4974656d20646f6573206e6f7420657869737400000000000000000000000000600082015250565b6000611e7a6013836116d0565b9150611e8582611e44565b602082019050919050565b60006020820190508181036000830152611ea981611e6d565b9050919050565b7f4e487b7100000000000000000000000000000000000000000000000000000000600052603260045260246000fd5b7f496e73756666696369656e7420616d6f756e74206f6620746f6b656e73000000600082015250565b6000611f15601d836116d0565b9150611f2082611edf565b602082019050919050565b60006020820190508181036000830152611f4481611f08565b9050919050565b60008190508160005260206000209050919050565b60008154611f6d81611dc0565b611f7781866116d0565b94506001821660008114611f925760018114611fa857611fdb565b60ff198316865281151560200286019350611fdb565b611fb185611f4b565b60005b83811015611fd357815481890152600182019150602081019050611fb4565b808801955050505b50505092915050565b60006040820190508181036000830152611ffe8185611f60565b905061200d6020830184611a13565b9392505050565b7f4e487b7100000000000000000000000000000000000000000000000000000000600052601160045260246000fd5b600061204e826117e9565b9150612059836117e9565b925082820190508082111561207157612070612014565b5b92915050565b7f4f6e6c792074686520636f6e7472616374206f776e65722063616e2063616c6c60008201527f20746869732066756e6374696f6e000000000000000000000000000000000000602082015250565b60006120d3602e836116d0565b91506120de82612077565b604082019050919050565b60006020820190508181036000830152612102816120c6565b9050919050565b60006020601f8301049050919050565b600082821b905092915050565b6000600883026121567fffffffffffffffffffffffffffffffffffffffffffffffffffffffffffffffff82612119565b6121608683612119565b95508019841693508086168417925050509392505050565b6000819050919050565b600061219d612198612193846117e9565b612178565b6117e9565b9050919050565b6000819050919050565b6121b783612182565b6121cb6121c3826121a4565b848454612126565b825550505050565b600090565b6121e06121d3565b6121eb8184846121ae565b505050565b5b8181101561220f576122046000826121d8565b6001810190506121f1565b5050565b601f8211156122545761222581611f4b565b61222e84612109565b8101602085101561223d578190505b61225161224985612109565b8301826121f0565b50505b505050565b600082821c905092915050565b600061227760001984600802612259565b1980831691505092915050565b60006122908383612266565b9150826002028217905092915050565b6122a9826116c5565b67ffffffffffffffff8111156122c2576122c161189f565b5b6122cc8254611dc0565b6122d7828285612213565b600060209050601f83116001811461230a57600084156122f8578287015190505b6123028582612284565b86555061236a565b601f19841661231886611f4b565b60005b828110156123405784890151825560018201915060208501945060208101905061231b565b8683101561235d5784890151612359601f891682612266565b8355505b6001600288020188555050505b505050505050565b7f45524332303a2064656372656173656420616c6c6f77616e63652062656c6f7760008201527f207a65726f000000000000000000000000000000000000000000000000000000602082015250565b60006123ce6025836116d0565b91506123d982612372565b604082019050919050565b600060208201905081810360008301526123fd816123c1565b9050919050565b600061240f826117e9565b915061241a836117e9565b925082820390508181111561243257612431612014565b5b92915050565b7f4163636f756e74207769746820696e64657820302063616e6e6f74207472616e60008201527f7366657220746f6b656e00000000000000000000000000000000000000000000602082015250565b6000612494602a836116d0565b915061249f82612438565b604082019050919050565b600060208201905081810360008301526124c381612487565b9050919050565b7f496e73756666696369656e7420616d6f756e74206f6620746f6b656e00000000600082015250565b6000612500601c836116d0565b915061250b826124ca565b602082019050919050565b6000602082019050818103600083015261252f816124f3565b9050919050565b7f45524332303a20617070726f76652066726f6d20746865207a65726f2061646460008201527f7265737300000000000000000000000000000000000000000000000000000000602082015250565b60006125926024836116d0565b915061259d82612536565b604082019050919050565b600060208201905081810360008301526125c181612585565b9050919050565b7f45524332303a20617070726f766520746f20746865207a65726f20616464726560008201527f7373000000000000000000000000000000000000000000000000000000000000602082015250565b60006126246022836116d0565b915061262f826125c8565b604082019050919050565b6000602082019050818103600083015261265381612617565b9050919050565b7f45524332303a206275726e2066726f6d20746865207a65726f2061646472657360008201527f7300000000000000000000000000000000000000000000000000000000000000602082015250565b60006126b66021836116d0565b91506126c18261265a565b604082019050919050565b600060208201905081810360008301526126e5816126a9565b9050919050565b7f45524332303a206275726e20616d6f756e7420657863656564732062616c616e60008201527f6365000000000000000000000000000000000000000000000000000000000000602082015250565b60006127486022836116d0565b9150612753826126ec565b604082019050919050565b600060208201905081810360008301526127778161273b565b9050919050565b7f45524332303a20696e73756666696369656e7420616c6c6f77616e6365000000600082015250565b60006127b4601d836116d0565b91506127bf8261277e565b602082019050919050565b600060208201905081810360008301526127e3816127a7565b9050919050565b7f45524332303a207472616e736665722066726f6d20746865207a65726f20616460008201527f6472657373000000000000000000000000000000000000000000000000000000602082015250565b60006128466025836116d0565b9150612851826127ea565b604082019050919050565b6000602082019050818103600083015261287581612839565b9050919050565b7f45524332303a207472616e7366657220746f20746865207a65726f206164647260008201527f6573730000000000000000000000000000000000000000000000000000000000602082015250565b60006128d86023836116d0565b91506128e38261287c565b604082019050919050565b60006020820190508181036000830152612907816128cb565b9050919050565b7f45524332303a207472616e7366657220616d6f756e742065786365656473206260008201527f616c616e63650000000000000000000000000000000000000000000000000000602082015250565b600061296a6026836116d0565b91506129758261290e565b604082019050919050565b600060208201905081810360008301526129998161295d565b9050919050565b7f45524332303a206d696e7420746f20746865207a65726f206164647265737300600082015250565b60006129d6601f836116d0565b91506129e1826129a0565b602082019050919050565b60006020820190508181036000830152612a05816129c9565b905091905056fea2646970667358221220d2fef8cd4e63238ec56a6b1862d6fa11a118149aa0953dd54ce9ec26d06475b964736f6c63430008140033",
  "linkReferences": {},
  "deployedLinkReferences": {}
}